{
  "_format": "hh-sol-artifact-1",
  "contractName": "TicketBooking",
  "sourceName": "contracts/TicketBooking.sol",
  "abi": [
    {
      "inputs": [],
      "stateMutability": "nonpayable",
      "type": "constructor"
    },
    {
      "inputs": [],
      "name": "TicketBooking__NotOwner",
      "type": "error"
    },
    {
      "anonymous": false,
      "inputs": [
        {
          "indexed": true,
          "internalType": "uint256",
          "name": "eventId",
          "type": "uint256"
        },
        {
          "indexed": false,
          "internalType": "string",
          "name": "eventTitle",
          "type": "string"
        },
        {
          "indexed": false,
          "internalType": "uint256",
          "name": "eventDate",
          "type": "uint256"
        },
        {
          "indexed": false,
          "internalType": "string",
          "name": "eventVenue",
          "type": "string"
        },
        {
          "indexed": true,
          "internalType": "address",
          "name": "eventOwner",
          "type": "address"
        },
        {
          "indexed": false,
          "internalType": "uint256",
          "name": "ticketCount",
          "type": "uint256"
        },
        {
          "indexed": false,
          "internalType": "uint256",
          "name": "vipTicketCount",
          "type": "uint256"
        },
        {
          "indexed": false,
          "internalType": "uint256",
          "name": "silverTicketPrice",
          "type": "uint256"
        },
        {
          "indexed": false,
          "internalType": "uint256",
          "name": "vipTicketPrice",
          "type": "uint256"
        }
      ],
      "name": "EventAdded",
      "type": "event"
    },
    {
      "anonymous": false,
      "inputs": [
        {
          "indexed": false,
          "internalType": "uint256",
          "name": "eventId",
          "type": "uint256"
        },
        {
          "indexed": false,
          "internalType": "uint256",
          "name": "ticketId",
          "type": "uint256"
        },
        {
          "indexed": false,
          "internalType": "string",
          "name": "category",
          "type": "string"
        },
        {
          "indexed": false,
          "internalType": "uint256",
          "name": "ticketPrice",
          "type": "uint256"
        }
      ],
      "name": "TicketBought",
      "type": "event"
    },
    {
      "inputs": [
        {
          "internalType": "uint256",
          "name": "_silverTicketPrice",
          "type": "uint256"
        },
        {
          "internalType": "uint256",
          "name": "_vipTicketPrice",
          "type": "uint256"
        },
        {
          "internalType": "uint256",
          "name": "_ticketCount",
          "type": "uint256"
        },
        {
          "internalType": "uint256",
          "name": "_vipTicketCount",
          "type": "uint256"
        },
        {
          "internalType": "string",
          "name": "_eventTitle",
          "type": "string"
        },
        {
          "internalType": "uint256",
          "name": "_eventDate",
          "type": "uint256"
        },
        {
          "internalType": "string",
          "name": "_evenHost",
          "type": "string"
        },
        {
          "internalType": "string",
          "name": "_eventVenue",
          "type": "string"
        }
      ],
      "name": "addEvent",
      "outputs": [],
      "stateMutability": "payable",
      "type": "function"
    },
    {
      "inputs": [
        {
          "internalType": "uint256",
          "name": "_ticketId",
          "type": "uint256"
        }
      ],
      "name": "buyTicket",
      "outputs": [],
      "stateMutability": "payable",
      "type": "function"
    },
    {
      "inputs": [
        {
          "internalType": "uint256",
          "name": "",
          "type": "uint256"
        }
      ],
      "name": "events",
      "outputs": [
        {
          "internalType": "uint256",
          "name": "eventId",
          "type": "uint256"
        },
        {
          "internalType": "address payable",
          "name": "eventOwner",
          "type": "address"
        },
        {
          "internalType": "string",
          "name": "eventTitle",
          "type": "string"
        },
        {
          "internalType": "string",
          "name": "eventVenue",
          "type": "string"
        },
        {
          "internalType": "string",
          "name": "eventHost",
          "type": "string"
        },
        {
          "internalType": "uint256",
          "name": "ticketCount",
          "type": "uint256"
        },
        {
          "internalType": "uint256",
          "name": "vipTicketCount",
          "type": "uint256"
        },
        {
          "internalType": "uint256",
          "name": "silverTicketPrice",
          "type": "uint256"
        },
        {
          "internalType": "uint256",
          "name": "vipTicketPrice",
          "type": "uint256"
        },
        {
          "internalType": "uint256",
          "name": "eventDate",
          "type": "uint256"
        },
        {
          "internalType": "uint256",
          "name": "sellingduration",
          "type": "uint256"
        },
        {
          "internalType": "bool",
          "name": "passed",
          "type": "bool"
        }
      ],
      "stateMutability": "view",
      "type": "function"
    },
    {
      "inputs": [],
      "name": "getAllEvents",
      "outputs": [
        {
          "components": [
            {
              "internalType": "uint256",
              "name": "eventId",
              "type": "uint256"
            },
            {
              "internalType": "address payable",
              "name": "eventOwner",
              "type": "address"
            },
            {
              "internalType": "string",
              "name": "eventTitle",
              "type": "string"
            },
            {
              "internalType": "string",
              "name": "eventVenue",
              "type": "string"
            },
            {
              "internalType": "string",
              "name": "eventHost",
              "type": "string"
            },
            {
              "internalType": "uint256",
              "name": "ticketCount",
              "type": "uint256"
            },
            {
              "internalType": "uint256",
              "name": "vipTicketCount",
              "type": "uint256"
            },
            {
              "internalType": "uint256",
              "name": "silverTicketPrice",
              "type": "uint256"
            },
            {
              "internalType": "uint256",
              "name": "vipTicketPrice",
              "type": "uint256"
            },
            {
              "internalType": "uint256",
              "name": "eventDate",
              "type": "uint256"
            },
            {
              "internalType": "uint256",
              "name": "sellingduration",
              "type": "uint256"
            },
            {
              "internalType": "bool",
              "name": "passed",
              "type": "bool"
            },
            {
              "components": [
                {
                  "internalType": "uint256",
                  "name": "ticketId",
                  "type": "uint256"
                },
                {
                  "internalType": "uint256",
                  "name": "eventId",
                  "type": "uint256"
                },
                {
                  "internalType": "uint256",
                  "name": "ticketPrice",
                  "type": "uint256"
                },
                {
                  "internalType": "string",
                  "name": "category",
                  "type": "string"
                },
                {
                  "internalType": "string",
                  "name": "eventTitle",
                  "type": "string"
                },
                {
                  "internalType": "uint256",
                  "name": "eventDate",
                  "type": "uint256"
                },
                {
                  "internalType": "string",
                  "name": "eventVenue",
                  "type": "string"
                },
                {
                  "internalType": "bool",
                  "name": "sold",
                  "type": "bool"
                }
              ],
              "internalType": "struct TicketBooking.Ticket[]",
              "name": "tickets",
              "type": "tuple[]"
            }
          ],
          "internalType": "struct TicketBooking.EventDetails[]",
          "name": "",
          "type": "tuple[]"
        }
      ],
      "stateMutability": "view",
      "type": "function"
    },
    {
      "inputs": [
        {
          "internalType": "uint256",
          "name": "_eventId",
          "type": "uint256"
        }
      ],
      "name": "getSignleEvent",
      "outputs": [
        {
          "components": [
            {
              "internalType": "uint256",
              "name": "eventId",
              "type": "uint256"
            },
            {
              "internalType": "address payable",
              "name": "eventOwner",
              "type": "address"
            },
            {
              "internalType": "string",
              "name": "eventTitle",
              "type": "string"
            },
            {
              "internalType": "string",
              "name": "eventVenue",
              "type": "string"
            },
            {
              "internalType": "string",
              "name": "eventHost",
              "type": "string"
            },
            {
              "internalType": "uint256",
              "name": "ticketCount",
              "type": "uint256"
            },
            {
              "internalType": "uint256",
              "name": "vipTicketCount",
              "type": "uint256"
            },
            {
              "internalType": "uint256",
              "name": "silverTicketPrice",
              "type": "uint256"
            },
            {
              "internalType": "uint256",
              "name": "vipTicketPrice",
              "type": "uint256"
            },
            {
              "internalType": "uint256",
              "name": "eventDate",
              "type": "uint256"
            },
            {
              "internalType": "uint256",
              "name": "sellingduration",
              "type": "uint256"
            },
            {
              "internalType": "bool",
              "name": "passed",
              "type": "bool"
            },
            {
              "components": [
                {
                  "internalType": "uint256",
                  "name": "ticketId",
                  "type": "uint256"
                },
                {
                  "internalType": "uint256",
                  "name": "eventId",
                  "type": "uint256"
                },
                {
                  "internalType": "uint256",
                  "name": "ticketPrice",
                  "type": "uint256"
                },
                {
                  "internalType": "string",
                  "name": "category",
                  "type": "string"
                },
                {
                  "internalType": "string",
                  "name": "eventTitle",
                  "type": "string"
                },
                {
                  "internalType": "uint256",
                  "name": "eventDate",
                  "type": "uint256"
                },
                {
                  "internalType": "string",
                  "name": "eventVenue",
                  "type": "string"
                },
                {
                  "internalType": "bool",
                  "name": "sold",
                  "type": "bool"
                }
              ],
              "internalType": "struct TicketBooking.Ticket[]",
              "name": "tickets",
              "type": "tuple[]"
            }
          ],
          "internalType": "struct TicketBooking.EventDetails",
          "name": "",
          "type": "tuple"
        }
      ],
      "stateMutability": "view",
      "type": "function"
    },
    {
      "inputs": [
        {
          "internalType": "uint256",
          "name": "",
          "type": "uint256"
        }
      ],
      "name": "idToTicket",
      "outputs": [
        {
          "internalType": "uint256",
          "name": "ticketId",
          "type": "uint256"
        },
        {
          "internalType": "uint256",
          "name": "eventId",
          "type": "uint256"
        },
        {
          "internalType": "uint256",
          "name": "ticketPrice",
          "type": "uint256"
        },
        {
          "internalType": "string",
          "name": "category",
          "type": "string"
        },
        {
          "internalType": "string",
          "name": "eventTitle",
          "type": "string"
        },
        {
          "internalType": "uint256",
          "name": "eventDate",
          "type": "uint256"
        },
        {
          "internalType": "string",
          "name": "eventVenue",
          "type": "string"
        },
        {
          "internalType": "bool",
          "name": "sold",
          "type": "bool"
        }
      ],
      "stateMutability": "view",
      "type": "function"
    },
    {
      "inputs": [
        {
          "internalType": "uint256",
          "name": "",
          "type": "uint256"
        }
      ],
      "name": "mapEventDetails",
      "outputs": [
        {
          "internalType": "uint256",
          "name": "eventId",
          "type": "uint256"
        },
        {
          "internalType": "address payable",
          "name": "eventOwner",
          "type": "address"
        },
        {
          "internalType": "string",
          "name": "eventTitle",
          "type": "string"
        },
        {
          "internalType": "string",
          "name": "eventVenue",
          "type": "string"
        },
        {
          "internalType": "string",
          "name": "eventHost",
          "type": "string"
        },
        {
          "internalType": "uint256",
          "name": "ticketCount",
          "type": "uint256"
        },
        {
          "internalType": "uint256",
          "name": "vipTicketCount",
          "type": "uint256"
        },
        {
          "internalType": "uint256",
          "name": "silverTicketPrice",
          "type": "uint256"
        },
        {
          "internalType": "uint256",
          "name": "vipTicketPrice",
          "type": "uint256"
        },
        {
          "internalType": "uint256",
          "name": "eventDate",
          "type": "uint256"
        },
        {
          "internalType": "uint256",
          "name": "sellingduration",
          "type": "uint256"
        },
        {
          "internalType": "bool",
          "name": "passed",
          "type": "bool"
        }
      ],
      "stateMutability": "view",
      "type": "function"
    },
    {
      "inputs": [
        {
          "internalType": "address",
          "name": "",
          "type": "address"
        }
      ],
      "name": "myEventCount",
      "outputs": [
        {
          "internalType": "uint256",
          "name": "",
          "type": "uint256"
        }
      ],
      "stateMutability": "view",
      "type": "function"
    },
    {
      "inputs": [
        {
          "internalType": "address",
          "name": "",
          "type": "address"
        },
        {
          "internalType": "uint256",
          "name": "",
          "type": "uint256"
        }
      ],
      "name": "myEvents",
      "outputs": [
        {
          "internalType": "uint256",
          "name": "eventId",
          "type": "uint256"
        },
        {
          "internalType": "address payable",
          "name": "eventOwner",
          "type": "address"
        },
        {
          "internalType": "string",
          "name": "eventTitle",
          "type": "string"
        },
        {
          "internalType": "string",
          "name": "eventVenue",
          "type": "string"
        },
        {
          "internalType": "string",
          "name": "eventHost",
          "type": "string"
        },
        {
          "internalType": "uint256",
          "name": "ticketCount",
          "type": "uint256"
        },
        {
          "internalType": "uint256",
          "name": "vipTicketCount",
          "type": "uint256"
        },
        {
          "internalType": "uint256",
          "name": "silverTicketPrice",
          "type": "uint256"
        },
        {
          "internalType": "uint256",
          "name": "vipTicketPrice",
          "type": "uint256"
        },
        {
          "internalType": "uint256",
          "name": "eventDate",
          "type": "uint256"
        },
        {
          "internalType": "uint256",
          "name": "sellingduration",
          "type": "uint256"
        },
        {
          "internalType": "bool",
          "name": "passed",
          "type": "bool"
        }
      ],
      "stateMutability": "view",
      "type": "function"
    },
    {
      "inputs": [
        {
          "internalType": "address",
          "name": "",
          "type": "address"
        },
        {
          "internalType": "uint256",
          "name": "",
          "type": "uint256"
        }
      ],
      "name": "myOrders",
      "outputs": [
        {
          "internalType": "uint256",
          "name": "timestamp",
          "type": "uint256"
        },
        {
          "components": [
            {
              "internalType": "uint256",
              "name": "ticketId",
              "type": "uint256"
            },
            {
              "internalType": "uint256",
              "name": "eventId",
              "type": "uint256"
            },
            {
              "internalType": "uint256",
              "name": "ticketPrice",
              "type": "uint256"
            },
            {
              "internalType": "string",
              "name": "category",
              "type": "string"
            },
            {
              "internalType": "string",
              "name": "eventTitle",
              "type": "string"
            },
            {
              "internalType": "uint256",
              "name": "eventDate",
              "type": "uint256"
            },
            {
              "internalType": "string",
              "name": "eventVenue",
              "type": "string"
            },
            {
              "internalType": "bool",
              "name": "sold",
              "type": "bool"
            }
          ],
          "internalType": "struct TicketBooking.Ticket",
          "name": "ticket",
          "type": "tuple"
        }
      ],
      "stateMutability": "view",
      "type": "function"
    },
    {
      "inputs": [
        {
          "internalType": "address",
          "name": "",
          "type": "address"
        }
      ],
      "name": "orderCount",
      "outputs": [
        {
          "internalType": "uint256",
          "name": "",
          "type": "uint256"
        }
      ],
      "stateMutability": "view",
      "type": "function"
    },
    {
      "inputs": [],
      "name": "withdraw",
      "outputs": [],
      "stateMutability": "nonpayable",
      "type": "function"
    }
  ],
  "bytecode": "0x60c06040526000600155610ce463ffffffff1660a09063ffffffff1660e01b81525034801561002d57600080fd5b503373ffffffffffffffffffffffffffffffffffffffff1660808173ffffffffffffffffffffffffffffffffffffffff1660601b8152505060805160601c60a05160e01c6148476100976000396000610a75015260008181611179015261120001526148476000f3fe6080604052600436106100a75760003560e01c8063509686571161006457806350968657146101f157806367dd74ca14610239578063713d856b146102555780637fbad78514610292578063c27a500d146102cf578063c9ae8cc5146102fa576100a7565b80630b791430146100ac5780631ed6013d146100f4578063298622011461013857806335ebd1c6146101545780633ccfd60b146101925780634108b08c146101a9575b600080fd5b3480156100b857600080fd5b506100d360048036038101906100ce919061333c565b610337565b6040516100eb9c9b9a99989796959493929190613f77565b60405180910390f35b34801561010057600080fd5b5061011b6004803603810190610116919061333c565b61056c565b60405161012f9897969594939291906140c2565b60405180910390f35b610152600480360381019061014d9190613369565b610759565b005b34801561016057600080fd5b5061017b600480360381019061017691906132fc565b610f42565b604051610189929190614046565b60405180910390f35b34801561019e57600080fd5b506101a7611177565b005b3480156101b557600080fd5b506101d060048036038101906101cb919061333c565b611295565b6040516101e89c9b9a99989796959493929190613f77565b60405180910390f35b3480156101fd57600080fd5b50610218600480360381019061021391906132fc565b6114ba565b6040516102309c9b9a99989796959493929190613f77565b60405180910390f35b610253600480360381019061024e919061333c565b6116ec565b005b34801561026157600080fd5b5061027c600480360381019061027791906132cf565b611ec0565b6040516102899190613f5c565b60405180910390f35b34801561029e57600080fd5b506102b960048036038101906102b491906132cf565b611ed8565b6040516102c69190613f5c565b60405180910390f35b3480156102db57600080fd5b506102e4611ef0565b6040516102f19190613d1b565b60405180910390f35b34801561030657600080fd5b50610321600480360381019061031c919061333c565b612416565b60405161032e9190613f3a565b60405180910390f35b6000818154811061034757600080fd5b90600052602060002090600d02016000915090508060000154908060010160009054906101000a900473ffffffffffffffffffffffffffffffffffffffff1690806002018054610396906143cf565b80601f01602080910402602001604051908101604052809291908181526020018280546103c2906143cf565b801561040f5780601f106103e45761010080835404028352916020019161040f565b820191906000526020600020905b8154815290600101906020018083116103f257829003601f168201915b505050505090806003018054610424906143cf565b80601f0160208091040260200160405190810160405280929190818152602001828054610450906143cf565b801561049d5780601f106104725761010080835404028352916020019161049d565b820191906000526020600020905b81548152906001019060200180831161048057829003601f168201915b5050505050908060040180546104b2906143cf565b80601f01602080910402602001604051908101604052809291908181526020018280546104de906143cf565b801561052b5780601f106105005761010080835404028352916020019161052b565b820191906000526020600020905b81548152906001019060200180831161050e57829003601f168201915b50505050509080600501549080600601549080600701549080600801549080600901549080600a01549080600b0160009054906101000a900460ff1690508c565b60086020528060005260406000206000915090508060000154908060010154908060020154908060030180546105a1906143cf565b80601f01602080910402602001604051908101604052809291908181526020018280546105cd906143cf565b801561061a5780601f106105ef5761010080835404028352916020019161061a565b820191906000526020600020905b8154815290600101906020018083116105fd57829003601f168201915b50505050509080600401805461062f906143cf565b80601f016020809104026020016040519081016040528092919081815260200182805461065b906143cf565b80156106a85780601f1061067d576101008083540402835291602001916106a8565b820191906000526020600020905b81548152906001019060200180831161068b57829003601f168201915b5050505050908060050154908060060180546106c3906143cf565b80601f01602080910402602001604051908101604052809291908181526020018280546106ef906143cf565b801561073c5780601f106107115761010080835404028352916020019161073c565b820191906000526020600020905b81548152906001019060200180831161071f57829003601f168201915b5050505050908060070160009054906101000a900460ff16905088565b6706f05b59d3b200003410156107a4576040517f08c379a000000000000000000000000000000000000000000000000000000000815260040161079b90613e3a565b60405180910390fd5b600086116107e7576040517f08c379a00000000000000000000000000000000000000000000000000000000081526004016107de90613e9a565b60405180910390fd5b6000851161082a576040517f08c379a000000000000000000000000000000000000000000000000000000000815260040161082190613eda565b60405180910390fd5b6000871161086d576040517f08c379a000000000000000000000000000000000000000000000000000000000815260040161086490613dba565b60405180910390fd5b600088116108b0576040517f08c379a00000000000000000000000000000000000000000000000000000000081526004016108a790613dfa565b60405180910390fd5b60008451116108f4576040517f08c379a00000000000000000000000000000000000000000000000000000000081526004016108eb90613efa565b60405180910390fd5b6000825111610938576040517f08c379a000000000000000000000000000000000000000000000000000000000815260040161092f90613e5a565b60405180910390fd5b600081511161097c576040517f08c379a000000000000000000000000000000000000000000000000000000000815260040161097390613e5a565b60405180910390fd5b6001600081548092919061098f90614432565b9190505550600060076000600154815260200190815260200160002090506001548160000181905550338160010160006101000a81548173ffffffffffffffffffffffffffffffffffffffff021916908373ffffffffffffffffffffffffffffffffffffffff16021790555084816002019080519060200190610a13929190612ebd565b5086816005018190555085816006018190555087816008018190555088816007018190555083816009018190555082816004019080519060200190610a59929190612ebd565b5081816003019080519060200190610a72929190612ebd565b507f000000000000000000000000000000000000000000000000000000000000000063ffffffff1642610aa5919061427f565b81600a0181905550610ae487876001548460010160009054906101000a900473ffffffffffffffffffffffffffffffffffffffff168d8d878c8a61290a565b60008190806001815401808255809150506001900390600052602060002090600d0201600090919091909150600082015481600001556001820160009054906101000a900473ffffffffffffffffffffffffffffffffffffffff168160010160006101000a81548173ffffffffffffffffffffffffffffffffffffffff021916908373ffffffffffffffffffffffffffffffffffffffff1602179055506002820181600201908054610b95906143cf565b610ba0929190612f43565b506003820181600301908054610bb5906143cf565b610bc0929190612f43565b506004820181600401908054610bd5906143cf565b610be0929190612f43565b506005820154816005015560068201548160060155600782015481600701556008820154816008015560098201548160090155600a82015481600a0155600b820160009054906101000a900460ff1681600b0160006101000a81548160ff021916908315150217905550600c820181600c01908054610c60929190612fd0565b505050600560003373ffffffffffffffffffffffffffffffffffffffff1673ffffffffffffffffffffffffffffffffffffffff1681526020019081526020016000206000815480929190610cb390614432565b919050555080600660003373ffffffffffffffffffffffffffffffffffffffff1673ffffffffffffffffffffffffffffffffffffffff1681526020019081526020016000206000600560003373ffffffffffffffffffffffffffffffffffffffff1673ffffffffffffffffffffffffffffffffffffffff168152602001908152602001600020548152602001908152602001600020600082015481600001556001820160009054906101000a900473ffffffffffffffffffffffffffffffffffffffff168160010160006101000a81548173ffffffffffffffffffffffffffffffffffffffff021916908373ffffffffffffffffffffffffffffffffffffffff1602179055506002820181600201908054610dcd906143cf565b610dd8929190612f43565b506003820181600301908054610ded906143cf565b610df8929190612f43565b506004820181600401908054610e0d906143cf565b610e18929190612f43565b506005820154816005015560068201548160060155600782015481600701556008820154816008015560098201548160090155600a82015481600a0155600b820160009054906101000a900460ff1681600b0160006101000a81548160ff021916908315150217905550600c820181600c01908054610e98929190612fd0565b509050508060010160009054906101000a900473ffffffffffffffffffffffffffffffffffffffff1673ffffffffffffffffffffffffffffffffffffffff166001547fa3d1cdbf967e0c9657da57257a851ca24ca3d3975235b7dbad1aea9cde6b4781836002018460090154856003018660050154876006015488600701548960080154604051610f2f9796959493929190613d3d565b60405180910390a3505050505050505050565b6004602052816000526040600020602052806000526040600020600091509150508060000154908060010160405180610100016040529081600082015481526020016001820154815260200160028201548152602001600382018054610fa7906143cf565b80601f0160208091040260200160405190810160405280929190818152602001828054610fd3906143cf565b80156110205780601f10610ff557610100808354040283529160200191611020565b820191906000526020600020905b81548152906001019060200180831161100357829003601f168201915b50505050508152602001600482018054611039906143cf565b80601f0160208091040260200160405190810160405280929190818152602001828054611065906143cf565b80156110b25780601f10611087576101008083540402835291602001916110b2565b820191906000526020600020905b81548152906001019060200180831161109557829003601f168201915b50505050508152602001600582015481526020016006820180546110d5906143cf565b80601f0160208091040260200160405190810160405280929190818152602001828054611101906143cf565b801561114e5780601f106111235761010080835404028352916020019161114e565b820191906000526020600020905b81548152906001019060200180831161113157829003601f168201915b505050505081526020016007820160009054906101000a900460ff161515151581525050905082565b7f000000000000000000000000000000000000000000000000000000000000000073ffffffffffffffffffffffffffffffffffffffff163373ffffffffffffffffffffffffffffffffffffffff16146111fc576040517fab2a235100000000000000000000000000000000000000000000000000000000815260040160405180910390fd5b60007f000000000000000000000000000000000000000000000000000000000000000073ffffffffffffffffffffffffffffffffffffffff164760405161124290613d06565b60006040518083038185875af1925050503d806000811461127f576040519150601f19603f3d011682016040523d82523d6000602084013e611284565b606091505b505090508061129257600080fd5b50565b60076020528060005260406000206000915090508060000154908060010160009054906101000a900473ffffffffffffffffffffffffffffffffffffffff16908060020180546112e4906143cf565b80601f0160208091040260200160405190810160405280929190818152602001828054611310906143cf565b801561135d5780601f106113325761010080835404028352916020019161135d565b820191906000526020600020905b81548152906001019060200180831161134057829003601f168201915b505050505090806003018054611372906143cf565b80601f016020809104026020016040519081016040528092919081815260200182805461139e906143cf565b80156113eb5780601f106113c0576101008083540402835291602001916113eb565b820191906000526020600020905b8154815290600101906020018083116113ce57829003601f168201915b505050505090806004018054611400906143cf565b80601f016020809104026020016040519081016040528092919081815260200182805461142c906143cf565b80156114795780601f1061144e57610100808354040283529160200191611479565b820191906000526020600020905b81548152906001019060200180831161145c57829003601f168201915b50505050509080600501549080600601549080600701549080600801549080600901549080600a01549080600b0160009054906101000a900460ff1690508c565b6006602052816000526040600020602052806000526040600020600091509150508060000154908060010160009054906101000a900473ffffffffffffffffffffffffffffffffffffffff1690806002018054611516906143cf565b80601f0160208091040260200160405190810160405280929190818152602001828054611542906143cf565b801561158f5780601f106115645761010080835404028352916020019161158f565b820191906000526020600020905b81548152906001019060200180831161157257829003601f168201915b5050505050908060030180546115a4906143cf565b80601f01602080910402602001604051908101604052809291908181526020018280546115d0906143cf565b801561161d5780601f106115f25761010080835404028352916020019161161d565b820191906000526020600020905b81548152906001019060200180831161160057829003601f168201915b505050505090806004018054611632906143cf565b80601f016020809104026020016040519081016040528092919081815260200182805461165e906143cf565b80156116ab5780601f10611680576101008083540402835291602001916116ab565b820191906000526020600020905b81548152906001019060200180831161168e57829003601f168201915b50505050509080600501549080600601549080600701549080600801549080600901549080600a01549080600b0160009054906101000a900460ff1690508c565b60006008600083815260200190815260200160002090506000600760008360010154815260200190815260200160002090508160020154341015611765576040517f08c379a000000000000000000000000000000000000000000000000000000000815260040161175c90613eba565b60405180910390fd5b600015158260070160009054906101000a900460ff161515146117bd576040517f08c379a00000000000000000000000000000000000000000000000000000000081526004016117b490613e1a565b60405180910390fd5b82826000015414611803576040517f08c379a00000000000000000000000000000000000000000000000000000000081526004016117fa90613dda565b60405180910390fd5b8281600c016001846000015461181991906142d5565b8154811061182a576118296144d9565b5b9060005260206000209060080201600001541461187c576040517f08c379a000000000000000000000000000000000000000000000000000000000815260040161187390613e1a565b60405180910390fd5b80600b0160009054906101000a900460ff168061189d57504281600a015411155b156118fa57600181600b0160006101000a81548160ff0219169083151502179055506040517f08c379a00000000000000000000000000000000000000000000000000000000081526004016118f190613e7a565b60405180910390fd5b600060405180604001604052804281526020018460405180610100016040529081600082015481526020016001820154815260200160028201548152602001600382018054611948906143cf565b80601f0160208091040260200160405190810160405280929190818152602001828054611974906143cf565b80156119c15780601f10611996576101008083540402835291602001916119c1565b820191906000526020600020905b8154815290600101906020018083116119a457829003601f168201915b505050505081526020016004820180546119da906143cf565b80601f0160208091040260200160405190810160405280929190818152602001828054611a06906143cf565b8015611a535780601f10611a2857610100808354040283529160200191611a53565b820191906000526020600020905b815481529060010190602001808311611a3657829003601f168201915b5050505050815260200160058201548152602001600682018054611a76906143cf565b80601f0160208091040260200160405190810160405280929190818152602001828054611aa2906143cf565b8015611aef5780601f10611ac457610100808354040283529160200191611aef565b820191906000526020600020905b815481529060010190602001808311611ad257829003601f168201915b505050505081526020016007820160009054906101000a900460ff1615151515815250508152509050600360003373ffffffffffffffffffffffffffffffffffffffff1673ffffffffffffffffffffffffffffffffffffffff1681526020019081526020016000206000815480929190611b6890614432565b919050555080600460003373ffffffffffffffffffffffffffffffffffffffff1673ffffffffffffffffffffffffffffffffffffffff1681526020019081526020016000206000600360003373ffffffffffffffffffffffffffffffffffffffff1673ffffffffffffffffffffffffffffffffffffffff168152602001908152602001600020548152602001908152602001600020600082015181600001556020820151816001016000820151816000015560208201518160010155604082015181600201556060820151816003019080519060200190611c4a929190612ebd565b506080820151816004019080519060200190611c67929190612ebd565b5060a0820151816005015560c0820151816006019080519060200190611c8e929190612ebd565b5060e08201518160070160006101000a81548160ff02191690831515021790555050509050508160010160009054906101000a900473ffffffffffffffffffffffffffffffffffffffff1673ffffffffffffffffffffffffffffffffffffffff166108fc349081150290604051600060405180830381858888f19350505050158015611d1e573d6000803e3d6000fd5b5060005b82600c0180549050811015611e71578483600c018281548110611d4857611d476144d9565b5b9060005260206000209060080201600001541415611e5e57600183600c018281548110611d7857611d776144d9565b5b906000526020600020906008020160070160006101000a81548160ff0219169083151502179055506040518060400160405280600681526020017f53696c76657200000000000000000000000000000000000000000000000000008152508051906020012083600c018281548110611df357611df26144d9565b5b9060005260206000209060080201600301604051611e119190613cef565b60405180910390201415611e3e57826005016000815480929190611e34906143a5565b9190505550611e59565b826006016000815480929190611e53906143a5565b91905055505b611e71565b8080611e6990614432565b915050611d22565b507f17c5eccb022f7299c7cb4967d2b0077cb19d358d8b025ceec9a7d2620f57eabe836001015485856003018660020154604051611eb29493929190614076565b60405180910390a150505050565b60036020528060005260406000206000915090505481565b60056020528060005260406000206000915090505481565b60606000805480602002602001604051908101604052809291908181526020016000905b8282101561240d57838290600052602060002090600d0201604051806101a0016040529081600082015481526020016001820160009054906101000a900473ffffffffffffffffffffffffffffffffffffffff1673ffffffffffffffffffffffffffffffffffffffff1673ffffffffffffffffffffffffffffffffffffffff168152602001600282018054611fa8906143cf565b80601f0160208091040260200160405190810160405280929190818152602001828054611fd4906143cf565b80156120215780601f10611ff657610100808354040283529160200191612021565b820191906000526020600020905b81548152906001019060200180831161200457829003601f168201915b5050505050815260200160038201805461203a906143cf565b80601f0160208091040260200160405190810160405280929190818152602001828054612066906143cf565b80156120b35780601f10612088576101008083540402835291602001916120b3565b820191906000526020600020905b81548152906001019060200180831161209657829003601f168201915b505050505081526020016004820180546120cc906143cf565b80601f01602080910402602001604051908101604052809291908181526020018280546120f8906143cf565b80156121455780601f1061211a57610100808354040283529160200191612145565b820191906000526020600020905b81548152906001019060200180831161212857829003601f168201915b505050505081526020016005820154815260200160068201548152602001600782015481526020016008820154815260200160098201548152602001600a8201548152602001600b820160009054906101000a900460ff16151515158152602001600c8201805480602002602001604051908101604052809291908181526020016000905b828210156123f657838290600052602060002090600802016040518061010001604052908160008201548152602001600182015481526020016002820154815260200160038201805461221c906143cf565b80601f0160208091040260200160405190810160405280929190818152602001828054612248906143cf565b80156122955780601f1061226a57610100808354040283529160200191612295565b820191906000526020600020905b81548152906001019060200180831161227857829003601f168201915b505050505081526020016004820180546122ae906143cf565b80601f01602080910402602001604051908101604052809291908181526020018280546122da906143cf565b80156123275780601f106122fc57610100808354040283529160200191612327565b820191906000526020600020905b81548152906001019060200180831161230a57829003601f168201915b505050505081526020016005820154815260200160068201805461234a906143cf565b80601f0160208091040260200160405190810160405280929190818152602001828054612376906143cf565b80156123c35780601f10612398576101008083540402835291602001916123c3565b820191906000526020600020905b8154815290600101906020018083116123a657829003601f168201915b505050505081526020016007820160009054906101000a900460ff161515151581525050815260200190600101906121ca565b505050508152505081526020019060010190611f14565b50505050905090565b61241e6130dd565b60076000838152602001908152602001600020604051806101a0016040529081600082015481526020016001820160009054906101000a900473ffffffffffffffffffffffffffffffffffffffff1673ffffffffffffffffffffffffffffffffffffffff1673ffffffffffffffffffffffffffffffffffffffff1681526020016002820180546124ad906143cf565b80601f01602080910402602001604051908101604052809291908181526020018280546124d9906143cf565b80156125265780601f106124fb57610100808354040283529160200191612526565b820191906000526020600020905b81548152906001019060200180831161250957829003601f168201915b5050505050815260200160038201805461253f906143cf565b80601f016020809104026020016040519081016040528092919081815260200182805461256b906143cf565b80156125b85780601f1061258d576101008083540402835291602001916125b8565b820191906000526020600020905b81548152906001019060200180831161259b57829003601f168201915b505050505081526020016004820180546125d1906143cf565b80601f01602080910402602001604051908101604052809291908181526020018280546125fd906143cf565b801561264a5780601f1061261f5761010080835404028352916020019161264a565b820191906000526020600020905b81548152906001019060200180831161262d57829003601f168201915b505050505081526020016005820154815260200160068201548152602001600782015481526020016008820154815260200160098201548152602001600a8201548152602001600b820160009054906101000a900460ff16151515158152602001600c8201805480602002602001604051908101604052809291908181526020016000905b828210156128fb578382906000526020600020906008020160405180610100016040529081600082015481526020016001820154815260200160028201548152602001600382018054612721906143cf565b80601f016020809104026020016040519081016040528092919081815260200182805461274d906143cf565b801561279a5780601f1061276f5761010080835404028352916020019161279a565b820191906000526020600020905b81548152906001019060200180831161277d57829003601f168201915b505050505081526020016004820180546127b3906143cf565b80601f01602080910402602001604051908101604052809291908181526020018280546127df906143cf565b801561282c5780601f106128015761010080835404028352916020019161282c565b820191906000526020600020905b81548152906001019060200180831161280f57829003601f168201915b505050505081526020016005820154815260200160068201805461284f906143cf565b80601f016020809104026020016040519081016040528092919081815260200182805461287b906143cf565b80156128c85780601f1061289d576101008083540402835291602001916128c8565b820191906000526020600020905b8154815290600101906020018083116128ab57829003601f168201915b505050505081526020016007820160009054906101000a900460ff161515151581525050815260200190600101906126cf565b50505050815250509050919050565b8573ffffffffffffffffffffffffffffffffffffffff163373ffffffffffffffffffffffffffffffffffffffff1614612978576040517f08c379a000000000000000000000000000000000000000000000000000000000815260040161296f90613f1a565b60405180910390fd5b6000805b8a811015612c1457818061298f90614432565b9250506040518061010001604052808381526020018a81526020018881526020016040518060400160405280600681526020017f53696c766572000000000000000000000000000000000000000000000000000081525081526020018581526020018660090154815260200184815260200160001515815250600860008481526020019081526020016000206000820151816000015560208201518160010155604082015181600201556060820151816003019080519060200190612a55929190612ebd565b506080820151816004019080519060200190612a72929190612ebd565b5060a0820151816005015560c0820151816006019080519060200190612a99929190612ebd565b5060e08201518160070160006101000a81548160ff02191690831515021790555090505084600c016040518061010001604052808481526020018b81526020018981526020016040518060400160405280600681526020017f53696c76657200000000000000000000000000000000000000000000000000008152508152602001868152602001876009015481526020018581526020016000151581525090806001815401808255809150506001900390600052602060002090600802016000909190919091506000820151816000015560208201518160010155604082015181600201556060820151816003019080519060200190612b9a929190612ebd565b506080820151816004019080519060200190612bb7929190612ebd565b5060a0820151816005015560c0820151816006019080519060200190612bde929190612ebd565b5060e08201518160070160006101000a81548160ff02191690831515021790555050508080612c0c90614432565b91505061297c565b5060005b89811015612eb0578180612c2b90614432565b9250506040518061010001604052808381526020018a81526020018781526020016040518060400160405280600381526020017f564950000000000000000000000000000000000000000000000000000000000081525081526020018581526020018660090154815260200184815260200160001515815250600860008481526020019081526020016000206000820151816000015560208201518160010155604082015181600201556060820151816003019080519060200190612cf1929190612ebd565b506080820151816004019080519060200190612d0e929190612ebd565b5060a0820151816005015560c0820151816006019080519060200190612d35929190612ebd565b5060e08201518160070160006101000a81548160ff02191690831515021790555090505084600c016040518061010001604052808481526020018b81526020018881526020016040518060400160405280600381526020017f56495000000000000000000000000000000000000000000000000000000000008152508152602001868152602001876009015481526020018581526020016000151581525090806001815401808255809150506001900390600052602060002090600802016000909190919091506000820151816000015560208201518160010155604082015181600201556060820151816003019080519060200190612e36929190612ebd565b506080820151816004019080519060200190612e53929190612ebd565b5060a0820151816005015560c0820151816006019080519060200190612e7a929190612ebd565b5060e08201518160070160006101000a81548160ff02191690831515021790555050508080612ea890614432565b915050612c18565b5050505050505050505050565b828054612ec9906143cf565b90600052602060002090601f016020900481019282612eeb5760008555612f32565b82601f10612f0457805160ff1916838001178555612f32565b82800160010185558215612f32579182015b82811115612f31578251825591602001919060010190612f16565b5b509050612f3f919061315d565b5090565b828054612f4f906143cf565b90600052602060002090601f016020900481019282612f715760008555612fbf565b82601f10612f825780548555612fbf565b82800160010185558215612fbf57600052602060002091601f016020900482015b82811115612fbe578254825591600101919060010190612fa3565b5b509050612fcc919061315d565b5090565b8280548282559060005260206000209060080281019282156130cc5760005260206000209160080282015b828111156130cb5782826000820154816000015560018201548160010155600282015481600201556003820181600301908054613037906143cf565b613042929190612f43565b506004820181600401908054613057906143cf565b613062929190612f43565b50600582015481600501556006820181600601908054613081906143cf565b61308c929190612f43565b506007820160009054906101000a900460ff168160070160006101000a81548160ff021916908315150217905550505091600801919060080190612ffb565b5b5090506130d9919061317a565b5090565b604051806101a0016040528060008152602001600073ffffffffffffffffffffffffffffffffffffffff168152602001606081526020016060815260200160608152602001600081526020016000815260200160008152602001600081526020016000815260200160008152602001600015158152602001606081525090565b5b8082111561317657600081600090555060010161315e565b5090565b5b808211156131f157600080820160009055600182016000905560028201600090556003820160006131ac91906131f5565b6004820160006131bc91906131f5565b60058201600090556006820160006131d491906131f5565b6007820160006101000a81549060ff02191690555060080161317b565b5090565b508054613201906143cf565b6000825580601f106132135750613232565b601f016020900490600052602060002090810190613231919061315d565b5b50565b60006132486132438461417a565b614155565b9050828152602081018484840111156132645761326361453c565b5b61326f848285614363565b509392505050565b600081359050613286816147e3565b92915050565b600082601f8301126132a1576132a0614537565b5b81356132b1848260208601613235565b91505092915050565b6000813590506132c9816147fa565b92915050565b6000602082840312156132e5576132e4614546565b5b60006132f384828501613277565b91505092915050565b6000806040838503121561331357613312614546565b5b600061332185828601613277565b9250506020613332858286016132ba565b9150509250929050565b60006020828403121561335257613351614546565b5b6000613360848285016132ba565b91505092915050565b600080600080600080600080610100898b03121561338a57613389614546565b5b60006133988b828c016132ba565b98505060206133a98b828c016132ba565b97505060406133ba8b828c016132ba565b96505060606133cb8b828c016132ba565b955050608089013567ffffffffffffffff8111156133ec576133eb614541565b5b6133f88b828c0161328c565b94505060a06134098b828c016132ba565b93505060c089013567ffffffffffffffff81111561342a57613429614541565b5b6134368b828c0161328c565b92505060e089013567ffffffffffffffff81111561345757613456614541565b5b6134638b828c0161328c565b9150509295985092959890939650565b600061347f83836138f9565b905092915050565b60006134938383613b55565b905092915050565b6134a48161431b565b82525050565b6134b38161431b565b82525050565b60006134c4826141f5565b6134ce8185614230565b9350836020820285016134e0856141ab565b8060005b8581101561351c57848403895281516134fd8582613473565b945061350883614216565b925060208a019950506001810190506134e4565b50829750879550505050505092915050565b600061353982614200565b6135438185614241565b935083602082028501613555856141bb565b8060005b8581101561359157848403895281516135728582613487565b945061357d83614223565b925060208a01995050600181019050613559565b50829750879550505050505092915050565b6135ac8161432d565b82525050565b6135bb8161432d565b82525050565b600081546135ce816143cf565b6135d88186614252565b945060018216600081146135f3576001811461360457613637565b60ff19831686528186019350613637565b61360d856141cb565b60005b8381101561362f57815481890152600182019150602081019050613610565b838801955050505b50505092915050565b600061364b8261420b565b613655818561425d565b9350613665818560208601614372565b61366e8161454b565b840191505092915050565b60006136848261420b565b61368e818561426e565b935061369e818560208601614372565b6136a78161454b565b840191505092915050565b600081546136bf816143cf565b6136c9818661426e565b945060018216600081146136e457600181146136f657613729565b60ff1983168652602086019350613729565b6136ff856141e0565b60005b8381101561372157815481890152600182019150602081019050613702565b808801955050505b50505092915050565b600061373f601e8361426e565b915061374a8261455c565b602082019050919050565b600061376260118361426e565b915061376d82614585565b602082019050919050565b600061378560218361426e565b9150613790826145ae565b604082019050919050565b60006137a860138361426e565b91506137b3826145fd565b602082019050919050565b60006137cb60198361426e565b91506137d682614626565b602082019050919050565b60006137ee601b8361426e565b91506137f98261464f565b602082019050919050565b600061381160188361426e565b915061381c82614678565b602082019050919050565b600061383460268361426e565b915061383f826146a1565b604082019050919050565b600061385760168361426e565b9150613862826146f0565b602082019050919050565b600061387a60238361426e565b915061388582614719565b604082019050919050565b600061389d600083614252565b91506138a882614768565b600082019050919050565b60006138c0601e8361426e565b91506138cb8261476b565b602082019050919050565b60006138e360248361426e565b91506138ee82614794565b604082019050919050565b60006101a0830160008301516139126000860182613cd1565b506020830151613925602086018261349b565b506040830151848203604086015261393d8282613640565b915050606083015184820360608601526139578282613640565b915050608083015184820360808601526139718282613640565b91505060a083015161398660a0860182613cd1565b5060c083015161399960c0860182613cd1565b5060e08301516139ac60e0860182613cd1565b506101008301516139c1610100860182613cd1565b506101208301516139d6610120860182613cd1565b506101408301516139eb610140860182613cd1565b50610160830151613a006101608601826135a3565b50610180830151848203610180860152613a1a828261352e565b9150508091505092915050565b60006101a083016000830151613a406000860182613cd1565b506020830151613a53602086018261349b565b5060408301518482036040860152613a6b8282613640565b91505060608301518482036060860152613a858282613640565b91505060808301518482036080860152613a9f8282613640565b91505060a0830151613ab460a0860182613cd1565b5060c0830151613ac760c0860182613cd1565b5060e0830151613ada60e0860182613cd1565b50610100830151613aef610100860182613cd1565b50610120830151613b04610120860182613cd1565b50610140830151613b19610140860182613cd1565b50610160830151613b2e6101608601826135a3565b50610180830151848203610180860152613b48828261352e565b9150508091505092915050565b600061010083016000830151613b6e6000860182613cd1565b506020830151613b816020860182613cd1565b506040830151613b946040860182613cd1565b5060608301518482036060860152613bac8282613640565b91505060808301518482036080860152613bc68282613640565b91505060a0830151613bdb60a0860182613cd1565b5060c083015184820360c0860152613bf38282613640565b91505060e0830151613c0860e08601826135a3565b508091505092915050565b600061010083016000830151613c2c6000860182613cd1565b506020830151613c3f6020860182613cd1565b506040830151613c526040860182613cd1565b5060608301518482036060860152613c6a8282613640565b91505060808301518482036080860152613c848282613640565b91505060a0830151613c9960a0860182613cd1565b5060c083015184820360c0860152613cb18282613640565b91505060e0830151613cc660e08601826135a3565b508091505092915050565b613cda81614359565b82525050565b613ce981614359565b82525050565b6000613cfb82846135c1565b915081905092915050565b6000613d1182613890565b9150819050919050565b60006020820190508181036000830152613d3581846134b9565b905092915050565b600060e0820190508181036000830152613d57818a6136b2565b9050613d666020830189613ce0565b8181036040830152613d7881886136b2565b9050613d876060830187613ce0565b613d946080830186613ce0565b613da160a0830185613ce0565b613dae60c0830184613ce0565b98975050505050505050565b60006020820190508181036000830152613dd381613732565b9050919050565b60006020820190508181036000830152613df381613755565b9050919050565b60006020820190508181036000830152613e1381613778565b9050919050565b60006020820190508181036000830152613e338161379b565b9050919050565b60006020820190508181036000830152613e53816137be565b9050919050565b60006020820190508181036000830152613e73816137e1565b9050919050565b60006020820190508181036000830152613e9381613804565b9050919050565b60006020820190508181036000830152613eb381613827565b9050919050565b60006020820190508181036000830152613ed38161384a565b9050919050565b60006020820190508181036000830152613ef38161386d565b9050919050565b60006020820190508181036000830152613f13816138b3565b9050919050565b60006020820190508181036000830152613f33816138d6565b9050919050565b60006020820190508181036000830152613f548184613a27565b905092915050565b6000602082019050613f716000830184613ce0565b92915050565b600061018082019050613f8d600083018f613ce0565b613f9a602083018e6134aa565b8181036040830152613fac818d613679565b90508181036060830152613fc0818c613679565b90508181036080830152613fd4818b613679565b9050613fe360a083018a613ce0565b613ff060c0830189613ce0565b613ffd60e0830188613ce0565b61400b610100830187613ce0565b614019610120830186613ce0565b614027610140830185613ce0565b6140356101608301846135b2565b9d9c50505050505050505050505050565b600060408201905061405b6000830185613ce0565b818103602083015261406d8184613c13565b90509392505050565b600060808201905061408b6000830187613ce0565b6140986020830186613ce0565b81810360408301526140aa81856136b2565b90506140b96060830184613ce0565b95945050505050565b6000610100820190506140d8600083018b613ce0565b6140e5602083018a613ce0565b6140f26040830189613ce0565b81810360608301526141048188613679565b905081810360808301526141188187613679565b905061412760a0830186613ce0565b81810360c08301526141398185613679565b905061414860e08301846135b2565b9998505050505050505050565b600061415f614170565b905061416b8282614401565b919050565b6000604051905090565b600067ffffffffffffffff82111561419557614194614508565b5b61419e8261454b565b9050602081019050919050565b6000819050602082019050919050565b6000819050602082019050919050565b60008190508160005260206000209050919050565b60008190508160005260206000209050919050565b600081519050919050565b600081519050919050565b600081519050919050565b6000602082019050919050565b6000602082019050919050565b600082825260208201905092915050565b600082825260208201905092915050565b600081905092915050565b600082825260208201905092915050565b600082825260208201905092915050565b600061428a82614359565b915061429583614359565b9250827fffffffffffffffffffffffffffffffffffffffffffffffffffffffffffffffff038211156142ca576142c961447b565b5b828201905092915050565b60006142e082614359565b91506142eb83614359565b9250828210156142fe576142fd61447b565b5b828203905092915050565b600061431482614339565b9050919050565b600061432682614339565b9050919050565b60008115159050919050565b600073ffffffffffffffffffffffffffffffffffffffff82169050919050565b6000819050919050565b82818337600083830152505050565b60005b83811015614390578082015181840152602081019050614375565b8381111561439f576000848401525b50505050565b60006143b082614359565b915060008214156143c4576143c361447b565b5b600182039050919050565b600060028204905060018216806143e757607f821691505b602082108114156143fb576143fa6144aa565b5b50919050565b61440a8261454b565b810181811067ffffffffffffffff8211171561442957614428614508565b5b80604052505050565b600061443d82614359565b91507fffffffffffffffffffffffffffffffffffffffffffffffffffffffffffffffff8214156144705761446f61447b565b5b600182019050919050565b7f4e487b7100000000000000000000000000000000000000000000000000000000600052601160045260246000fd5b7f4e487b7100000000000000000000000000000000000000000000000000000000600052602260045260246000fd5b7f4e487b7100000000000000000000000000000000000000000000000000000000600052603260045260246000fd5b7f4e487b7100000000000000000000000000000000000000000000000000000000600052604160045260246000fd5b600080fd5b600080fd5b600080fd5b600080fd5b6000601f19601f8301169050919050565b7f5f7669705469636b657450726963652063616e6e6f74206265207a65726f0000600082015250565b7f496e76616c6964207469636b6574204944000000000000000000000000000000600082015250565b7f5f73696c7665725469636b657450726963652063616e6e6f74206265207a657260008201527f6f00000000000000000000000000000000000000000000000000000000000000602082015250565b7f5469636b657420616c726561647920736f6c6400000000000000000000000000600082015250565b7f596f7520646f6e2774206861766520656e6f7567682045544800000000000000600082015250565b7f4576656e742076656e75652063616e6e6f7420626520656d7074790000000000600082015250565b7f53656c6c696e67206475726174696f6e20657870697265640000000000000000600082015250565b7f4e756d626572206f662053696c766572207469636b65742063616e6e6f74206260008201527f65207a65726f0000000000000000000000000000000000000000000000000000602082015250565b7f496e636f7272656374207469636b657420707269636500000000000000000000600082015250565b7f4e756d626572206f6620564950207469636b65742063616e6e6f74206265207a60008201527f65726f0000000000000000000000000000000000000000000000000000000000602082015250565b50565b7f5469746c65206f66206576656e742063616e6e6f7420626520656d7074790000600082015250565b7f4f6e6c7920746865204576656e74206f776e65722063616e204164642054696360008201527f6b65747300000000000000000000000000000000000000000000000000000000602082015250565b6147ec81614309565b81146147f757600080fd5b50565b61480381614359565b811461480e57600080fd5b5056fea2646970667358221220bf03aece916c83c2a40fc06a144ca8420218d38385405f9ae491072d4f2f49b564736f6c63430008070033",
  "linkReferences": {},
  "deployedLinkReferences": {}
}