{
  "_format": "hh-sol-artifact-1",
  "contractName": "TicketBooking",
  "sourceName": "contracts/TicketBooking.sol",
  "abi": [
    {
      "inputs": [
        {
          "internalType": "uint256",
          "name": "_silverTicketPrice",
          "type": "uint256"
        },
        {
          "internalType": "uint256",
          "name": "_vipTicketPrice",
          "type": "uint256"
        },
        {
          "internalType": "uint256",
          "name": "_ticketCount",
          "type": "uint256"
        },
        {
          "internalType": "uint256",
          "name": "_vipTicketCount",
          "type": "uint256"
        },
        {
          "internalType": "string",
          "name": "_eventTitle",
          "type": "string"
        }
      ],
      "name": "addEvent",
      "outputs": [],
      "stateMutability": "payable",
      "type": "function"
    },
    {
      "inputs": [
        {
          "internalType": "uint256",
          "name": "_ticketId",
          "type": "uint256"
        }
      ],
      "name": "buyTicket",
      "outputs": [],
      "stateMutability": "payable",
      "type": "function"
    },
    {
      "inputs": [
        {
          "internalType": "uint256",
          "name": "",
          "type": "uint256"
        }
      ],
      "name": "events",
      "outputs": [
        {
          "internalType": "uint256",
          "name": "eventId",
          "type": "uint256"
        },
        {
          "internalType": "address",
          "name": "eventOwner",
          "type": "address"
        },
        {
          "internalType": "string",
          "name": "eventTitle",
          "type": "string"
        },
        {
          "internalType": "uint256",
          "name": "ticketCount",
          "type": "uint256"
        },
        {
          "internalType": "uint256",
          "name": "vipTicketCount",
          "type": "uint256"
        },
        {
          "internalType": "uint256",
          "name": "silverTicketPrice",
          "type": "uint256"
        },
        {
          "internalType": "uint256",
          "name": "vipTicketPrice",
          "type": "uint256"
        },
        {
          "internalType": "uint256",
          "name": "eventDate",
          "type": "uint256"
        },
        {
          "internalType": "bool",
          "name": "passed",
          "type": "bool"
        }
      ],
      "stateMutability": "view",
      "type": "function"
    },
    {
      "inputs": [],
      "name": "getAllEvents",
      "outputs": [
        {
          "components": [
            {
              "internalType": "uint256",
              "name": "eventId",
              "type": "uint256"
            },
            {
              "internalType": "address",
              "name": "eventOwner",
              "type": "address"
            },
            {
              "internalType": "string",
              "name": "eventTitle",
              "type": "string"
            },
            {
              "internalType": "uint256",
              "name": "ticketCount",
              "type": "uint256"
            },
            {
              "internalType": "uint256",
              "name": "vipTicketCount",
              "type": "uint256"
            },
            {
              "internalType": "uint256",
              "name": "silverTicketPrice",
              "type": "uint256"
            },
            {
              "internalType": "uint256",
              "name": "vipTicketPrice",
              "type": "uint256"
            },
            {
              "internalType": "uint256",
              "name": "eventDate",
              "type": "uint256"
            },
            {
              "internalType": "bool",
              "name": "passed",
              "type": "bool"
            },
            {
              "components": [
                {
                  "internalType": "uint256",
                  "name": "eventId",
                  "type": "uint256"
                },
                {
                  "internalType": "uint256",
                  "name": "ticketId",
                  "type": "uint256"
                },
                {
                  "internalType": "uint256",
                  "name": "ticketPrice",
                  "type": "uint256"
                },
                {
                  "internalType": "string",
                  "name": "category",
                  "type": "string"
                },
                {
                  "internalType": "string",
                  "name": "eventTitle",
                  "type": "string"
                },
                {
                  "internalType": "uint256",
                  "name": "eventDate",
                  "type": "uint256"
                }
              ],
              "internalType": "struct TicketBooking.Ticket[]",
              "name": "tickets",
              "type": "tuple[]"
            }
          ],
          "internalType": "struct TicketBooking.EventDetails[]",
          "name": "",
          "type": "tuple[]"
        }
      ],
      "stateMutability": "view",
      "type": "function"
    },
    {
      "inputs": [
        {
          "internalType": "uint256",
          "name": "_eventId",
          "type": "uint256"
        }
      ],
      "name": "getSignleEvent",
      "outputs": [
        {
          "components": [
            {
              "internalType": "uint256",
              "name": "eventId",
              "type": "uint256"
            },
            {
              "internalType": "address",
              "name": "eventOwner",
              "type": "address"
            },
            {
              "internalType": "string",
              "name": "eventTitle",
              "type": "string"
            },
            {
              "internalType": "uint256",
              "name": "ticketCount",
              "type": "uint256"
            },
            {
              "internalType": "uint256",
              "name": "vipTicketCount",
              "type": "uint256"
            },
            {
              "internalType": "uint256",
              "name": "silverTicketPrice",
              "type": "uint256"
            },
            {
              "internalType": "uint256",
              "name": "vipTicketPrice",
              "type": "uint256"
            },
            {
              "internalType": "uint256",
              "name": "eventDate",
              "type": "uint256"
            },
            {
              "internalType": "bool",
              "name": "passed",
              "type": "bool"
            },
            {
              "components": [
                {
                  "internalType": "uint256",
                  "name": "eventId",
                  "type": "uint256"
                },
                {
                  "internalType": "uint256",
                  "name": "ticketId",
                  "type": "uint256"
                },
                {
                  "internalType": "uint256",
                  "name": "ticketPrice",
                  "type": "uint256"
                },
                {
                  "internalType": "string",
                  "name": "category",
                  "type": "string"
                },
                {
                  "internalType": "string",
                  "name": "eventTitle",
                  "type": "string"
                },
                {
                  "internalType": "uint256",
                  "name": "eventDate",
                  "type": "uint256"
                }
              ],
              "internalType": "struct TicketBooking.Ticket[]",
              "name": "tickets",
              "type": "tuple[]"
            }
          ],
          "internalType": "struct TicketBooking.EventDetails",
          "name": "",
          "type": "tuple"
        }
      ],
      "stateMutability": "view",
      "type": "function"
    },
    {
      "inputs": [
        {
          "internalType": "uint256",
          "name": "",
          "type": "uint256"
        }
      ],
      "name": "mapEventDetails",
      "outputs": [
        {
          "internalType": "uint256",
          "name": "eventId",
          "type": "uint256"
        },
        {
          "internalType": "address",
          "name": "eventOwner",
          "type": "address"
        },
        {
          "internalType": "string",
          "name": "eventTitle",
          "type": "string"
        },
        {
          "internalType": "uint256",
          "name": "ticketCount",
          "type": "uint256"
        },
        {
          "internalType": "uint256",
          "name": "vipTicketCount",
          "type": "uint256"
        },
        {
          "internalType": "uint256",
          "name": "silverTicketPrice",
          "type": "uint256"
        },
        {
          "internalType": "uint256",
          "name": "vipTicketPrice",
          "type": "uint256"
        },
        {
          "internalType": "uint256",
          "name": "eventDate",
          "type": "uint256"
        },
        {
          "internalType": "bool",
          "name": "passed",
          "type": "bool"
        }
      ],
      "stateMutability": "view",
      "type": "function"
    },
    {
      "inputs": [
        {
          "internalType": "address",
          "name": "",
          "type": "address"
        },
        {
          "internalType": "uint256",
          "name": "",
          "type": "uint256"
        }
      ],
      "name": "myOrders",
      "outputs": [
        {
          "internalType": "uint256",
          "name": "timestamp",
          "type": "uint256"
        },
        {
          "components": [
            {
              "internalType": "uint256",
              "name": "eventId",
              "type": "uint256"
            },
            {
              "internalType": "uint256",
              "name": "ticketId",
              "type": "uint256"
            },
            {
              "internalType": "uint256",
              "name": "ticketPrice",
              "type": "uint256"
            },
            {
              "internalType": "string",
              "name": "category",
              "type": "string"
            },
            {
              "internalType": "string",
              "name": "eventTitle",
              "type": "string"
            },
            {
              "internalType": "uint256",
              "name": "eventDate",
              "type": "uint256"
            }
          ],
          "internalType": "struct TicketBooking.Ticket",
          "name": "ticket",
          "type": "tuple"
        }
      ],
      "stateMutability": "view",
      "type": "function"
    },
    {
      "inputs": [
        {
          "internalType": "address",
          "name": "",
          "type": "address"
        }
      ],
      "name": "orderCount",
      "outputs": [
        {
          "internalType": "uint256",
          "name": "",
          "type": "uint256"
        }
      ],
      "stateMutability": "view",
      "type": "function"
    }
  ],
  "bytecode": "0x60a0604052600060015560b463ffffffff1660809063ffffffff1660e01b81525034801561002c57600080fd5b5060805160e01c612add61004b60003960006104410152612add6000f3fe60806040526004361061007b5760003560e01c806367dd74ca1161004e57806367dd74ca14610164578063713d856b14610180578063c27a500d146101bd578063c9ae8cc5146101e85761007b565b80630b791430146100805780631b4a4397146100c557806335ebd1c6146100e15780634108b08c1461011f575b600080fd5b34801561008c57600080fd5b506100a760048036038101906100a29190611d7c565b610225565b6040516100bc99989796959493929190612529565b60405180910390f35b6100df60048036038101906100da9190611da9565b610338565b005b3480156100ed57600080fd5b5061010860048036038101906101039190611d3c565b6105ec565b6040516101169291906125bd565b60405180910390f35b34801561012b57600080fd5b5061014660048036038101906101419190611d7c565b610773565b60405161015b99989796959493929190612529565b60405180910390f35b61017e60048036038101906101799190611d7c565b610876565b005b34801561018c57600080fd5b506101a760048036038101906101a29190611d0f565b610e8b565b6040516101b4919061250e565b60405180910390f35b3480156101c957600080fd5b506101d2610ea3565b6040516101df919061240a565b60405180910390f35b3480156101f457600080fd5b5061020f600480360381019061020a9190611d7c565b6111ed565b60405161021c91906124ec565b60405180910390f35b6000818154811061023557600080fd5b90600052602060002090600a02016000915090508060000154908060010160009054906101000a900473ffffffffffffffffffffffffffffffffffffffff1690806002018054610284906127cd565b80601f01602080910402602001604051908101604052809291908181526020018280546102b0906127cd565b80156102fd5780601f106102d2576101008083540402835291602001916102fd565b820191906000526020600020905b8154815290600101906020018083116102e057829003601f168201915b5050505050908060030154908060040154908060050154908060060154908060070154908060080160009054906101000a900460ff16905089565b6706f05b59d3b20000341015610383576040517f08c379a000000000000000000000000000000000000000000000000000000000815260040161037a9061246c565b60405180910390fd5b6001600081548092919061039690612830565b9190505550600060056000600154815260200190815260200160002090506001548160000181905550338160010160006101000a81548173ffffffffffffffffffffffffffffffffffffffff021916908373ffffffffffffffffffffffffffffffffffffffff1602179055508181600201908051906020019061041a929190611983565b508381600301819055508281600401819055508481600601819055508581600501819055507f000000000000000000000000000000000000000000000000000000000000000063ffffffff164261047191906126ed565b81600701819055506104af84846001548460010160009054906101000a900473ffffffffffffffffffffffffffffffffffffffff168a8a8789611505565b60008190806001815401808255809150506001900390600052602060002090600a0201600090919091909150600082015481600001556001820160009054906101000a900473ffffffffffffffffffffffffffffffffffffffff168160010160006101000a81548173ffffffffffffffffffffffffffffffffffffffff021916908373ffffffffffffffffffffffffffffffffffffffff1602179055506002820181600201908054610560906127cd565b61056b929190611a09565b5060038201548160030155600482015481600401556005820154816005015560068201548160060155600782015481600701556008820160009054906101000a900460ff168160080160006101000a81548160ff02191690831515021790555060098201816009019080546105e1929190611a96565b505050505050505050565b600460205281600052604060002060205280600052604060002060009150915050806000015490806001016040518060c0016040529081600082015481526020016001820154815260200160028201548152602001600382018054610650906127cd565b80601f016020809104026020016040519081016040528092919081815260200182805461067c906127cd565b80156106c95780601f1061069e576101008083540402835291602001916106c9565b820191906000526020600020905b8154815290600101906020018083116106ac57829003601f168201915b505050505081526020016004820180546106e2906127cd565b80601f016020809104026020016040519081016040528092919081815260200182805461070e906127cd565b801561075b5780601f106107305761010080835404028352916020019161075b565b820191906000526020600020905b81548152906001019060200180831161073e57829003601f168201915b50505050508152602001600582015481525050905082565b60056020528060005260406000206000915090508060000154908060010160009054906101000a900473ffffffffffffffffffffffffffffffffffffffff16908060020180546107c2906127cd565b80601f01602080910402602001604051908101604052809291908181526020018280546107ee906127cd565b801561083b5780601f106108105761010080835404028352916020019161083b565b820191906000526020600020905b81548152906001019060200180831161081e57829003601f168201915b5050505050908060030154908060040154908060050154908060060154908060070154908060080160009054906101000a900460ff16905089565b60006006600083815260200190815260200160002090506000600560008360000154815260200190815260200160002090506006600084815260200190815260200160002060020154341015610901576040517f08c379a00000000000000000000000000000000000000000000000000000000081526004016108f8906124ac565b60405180910390fd5b82826001015414610947576040517f08c379a000000000000000000000000000000000000000000000000000000000815260040161093e9061242c565b60405180910390fd5b8281600901836001015481548110610962576109616128d7565b5b906000526020600020906006020160010154146109b4576040517f08c379a00000000000000000000000000000000000000000000000000000000081526004016109ab9061244c565b60405180910390fd5b8060080160009054906101000a900460ff16806109d5575042816007015411155b15610a325760018160080160006101000a81548160ff0219169083151502179055506040517f08c379a0000000000000000000000000000000000000000000000000000000008152600401610a299061248c565b60405180910390fd5b60006040518060400160405280428152602001600660008781526020019081526020016000206040518060c0016040529081600082015481526020016001820154815260200160028201548152602001600382018054610a91906127cd565b80601f0160208091040260200160405190810160405280929190818152602001828054610abd906127cd565b8015610b0a5780601f10610adf57610100808354040283529160200191610b0a565b820191906000526020600020905b815481529060010190602001808311610aed57829003601f168201915b50505050508152602001600482018054610b23906127cd565b80601f0160208091040260200160405190810160405280929190818152602001828054610b4f906127cd565b8015610b9c5780601f10610b7157610100808354040283529160200191610b9c565b820191906000526020600020905b815481529060010190602001808311610b7f57829003601f168201915b505050505081526020016005820154815250508152509050600360003373ffffffffffffffffffffffffffffffffffffffff1673ffffffffffffffffffffffffffffffffffffffff1681526020019081526020016000206000815480929190610c0490612830565b919050555080600460003373ffffffffffffffffffffffffffffffffffffffff1673ffffffffffffffffffffffffffffffffffffffff1681526020019081526020016000206000600360003373ffffffffffffffffffffffffffffffffffffffff1673ffffffffffffffffffffffffffffffffffffffff168152602001908152602001600020548152602001908152602001600020600082015181600001556020820151816001016000820151816000015560208201518160010155604082015181600201556060820151816003019080519060200190610ce6929190611983565b506080820151816004019080519060200190610d03929190611983565b5060a08201518160050155505090505060008260010160009054906101000a900473ffffffffffffffffffffffffffffffffffffffff1673ffffffffffffffffffffffffffffffffffffffff166006600087815260200190815260200160002060020154604051610d73906123f5565b60006040518083038185875af1925050503d8060008114610db0576040519150601f19603f3d011682016040523d82523d6000602084013e610db5565b606091505b5050905080610dc357600080fd5b60005b8360090180549050811015610e835785846009018281548110610dec57610deb6128d7565b5b9060005260206000209060060201600101541415610e7057836009018181548110610e1a57610e196128d7565b5b906000526020600020906006020160008082016000905560018201600090556002820160009055600382016000610e519190611b56565b600482016000610e619190611b56565b60058201600090555050610e83565b8080610e7b90612830565b915050610dc6565b505050505050565b60036020528060005260406000206000915090505481565b60606000805480602002602001604051908101604052809291908181526020016000905b828210156111e457838290600052602060002090600a020160405180610140016040529081600082015481526020016001820160009054906101000a900473ffffffffffffffffffffffffffffffffffffffff1673ffffffffffffffffffffffffffffffffffffffff1673ffffffffffffffffffffffffffffffffffffffff168152602001600282018054610f5b906127cd565b80601f0160208091040260200160405190810160405280929190818152602001828054610f87906127cd565b8015610fd45780601f10610fa957610100808354040283529160200191610fd4565b820191906000526020600020905b815481529060010190602001808311610fb757829003601f168201915b5050505050815260200160038201548152602001600482015481526020016005820154815260200160068201548152602001600782015481526020016008820160009054906101000a900460ff1615151515815260200160098201805480602002602001604051908101604052809291908181526020016000905b828210156111cd57838290600052602060002090600602016040518060c00160405290816000820154815260200160018201548152602001600282015481526020016003820180546110a0906127cd565b80601f01602080910402602001604051908101604052809291908181526020018280546110cc906127cd565b80156111195780601f106110ee57610100808354040283529160200191611119565b820191906000526020600020905b8154815290600101906020018083116110fc57829003601f168201915b50505050508152602001600482018054611132906127cd565b80601f016020809104026020016040519081016040528092919081815260200182805461115e906127cd565b80156111ab5780601f10611180576101008083540402835291602001916111ab565b820191906000526020600020905b81548152906001019060200180831161118e57829003601f168201915b505050505081526020016005820154815250508152602001906001019061104f565b505050508152505081526020019060010190610ec7565b50505050905090565b6111f5611b96565b6005600083815260200190815260200160002060405180610140016040529081600082015481526020016001820160009054906101000a900473ffffffffffffffffffffffffffffffffffffffff1673ffffffffffffffffffffffffffffffffffffffff1673ffffffffffffffffffffffffffffffffffffffff168152602001600282018054611284906127cd565b80601f01602080910402602001604051908101604052809291908181526020018280546112b0906127cd565b80156112fd5780601f106112d2576101008083540402835291602001916112fd565b820191906000526020600020905b8154815290600101906020018083116112e057829003601f168201915b5050505050815260200160038201548152602001600482015481526020016005820154815260200160068201548152602001600782015481526020016008820160009054906101000a900460ff1615151515815260200160098201805480602002602001604051908101604052809291908181526020016000905b828210156114f657838290600052602060002090600602016040518060c00160405290816000820154815260200160018201548152602001600282015481526020016003820180546113c9906127cd565b80601f01602080910402602001604051908101604052809291908181526020018280546113f5906127cd565b80156114425780601f1061141757610100808354040283529160200191611442565b820191906000526020600020905b81548152906001019060200180831161142557829003601f168201915b5050505050815260200160048201805461145b906127cd565b80601f0160208091040260200160405190810160405280929190818152602001828054611487906127cd565b80156114d45780601f106114a9576101008083540402835291602001916114d4565b820191906000526020600020905b8154815290600101906020018083116114b757829003601f168201915b5050505050815260200160058201548152505081526020019060010190611378565b50505050815250509050919050565b8473ffffffffffffffffffffffffffffffffffffffff163373ffffffffffffffffffffffffffffffffffffffff1614611573576040517f08c379a000000000000000000000000000000000000000000000000000000000815260040161156a906124cc565b60405180910390fd5b6000805b8981101561177557818061158a90612830565b9250506040518060c001604052808381526020018981526020018781526020016040518060400160405280600681526020017f53696c766572000000000000000000000000000000000000000000000000000081525081526020018481526020018560070154815250600660008481526020019081526020016000206000820151816000015560208201518160010155604082015181600201556060820151816003019080519060200190611640929190611983565b50608082015181600401908051906020019061165d929190611983565b5060a08201518160050155905050836009016040518060c001604052808481526020018a81526020018881526020016040518060400160405280600681526020017f53696c76657200000000000000000000000000000000000000000000000000008152508152602001858152602001866007015481525090806001815401808255809150506001900390600052602060002090600602016000909190919091506000820151816000015560208201518160010155604082015181600201556060820151816003019080519060200190611738929190611983565b506080820151816004019080519060200190611755929190611983565b5060a082015181600501555050808061176d90612830565b915050611577565b5060005b8881101561197757818061178c90612830565b9250506040518060c001604052808381526020018981526020018681526020016040518060400160405280600381526020017f564950000000000000000000000000000000000000000000000000000000000081525081526020018481526020018560070154815250600660008481526020019081526020016000206000820151816000015560208201518160010155604082015181600201556060820151816003019080519060200190611842929190611983565b50608082015181600401908051906020019061185f929190611983565b5060a08201518160050155905050836009016040518060c001604052808481526020018a81526020018781526020016040518060400160405280600381526020017f5649500000000000000000000000000000000000000000000000000000000000815250815260200185815260200186600701548152509080600181540180825580915050600190039060005260206000209060060201600090919091909150600082015181600001556020820151816001015560408201518160020155606082015181600301908051906020019061193a929190611983565b506080820151816004019080519060200190611957929190611983565b5060a082015181600501555050808061196f90612830565b915050611779565b50505050505050505050565b82805461198f906127cd565b90600052602060002090601f0160209004810192826119b157600085556119f8565b82601f106119ca57805160ff19168380011785556119f8565b828001600101855582156119f8579182015b828111156119f75782518255916020019190600101906119dc565b5b509050611a059190611c01565b5090565b828054611a15906127cd565b90600052602060002090601f016020900481019282611a375760008555611a85565b82601f10611a485780548555611a85565b82800160010185558215611a8557600052602060002091601f016020900482015b82811115611a84578254825591600101919060010190611a69565b5b509050611a929190611c01565b5090565b828054828255906000526020600020906006028101928215611b455760005260206000209160060282015b82811115611b445782826000820154816000015560018201548160010155600282015481600201556003820181600301908054611afd906127cd565b611b08929190611a09565b506004820181600401908054611b1d906127cd565b611b28929190611a09565b5060058201548160050155505091600601919060060190611ac1565b5b509050611b529190611c1e565b5090565b508054611b62906127cd565b6000825580601f10611b745750611b93565b601f016020900490600052602060002090810190611b929190611c01565b5b50565b60405180610140016040528060008152602001600073ffffffffffffffffffffffffffffffffffffffff168152602001606081526020016000815260200160008152602001600081526020016000815260200160008152602001600015158152602001606081525090565b5b80821115611c1a576000816000905550600101611c02565b5090565b5b80821115611c715760008082016000905560018201600090556002820160009055600382016000611c509190611b56565b600482016000611c609190611b56565b600582016000905550600601611c1f565b5090565b6000611c88611c8384612612565b6125ed565b905082815260208101848484011115611ca457611ca361293a565b5b611caf84828561278b565b509392505050565b600081359050611cc681612a79565b92915050565b600082601f830112611ce157611ce0612935565b5b8135611cf1848260208601611c75565b91505092915050565b600081359050611d0981612a90565b92915050565b600060208284031215611d2557611d24612944565b5b6000611d3384828501611cb7565b91505092915050565b60008060408385031215611d5357611d52612944565b5b6000611d6185828601611cb7565b9250506020611d7285828601611cfa565b9150509250929050565b600060208284031215611d9257611d91612944565b5b6000611da084828501611cfa565b91505092915050565b600080600080600060a08688031215611dc557611dc4612944565b5b6000611dd388828901611cfa565b9550506020611de488828901611cfa565b9450506040611df588828901611cfa565b9350506060611e0688828901611cfa565b925050608086013567ffffffffffffffff811115611e2757611e2661293f565b5b611e3388828901611ccc565b9150509295509295909350565b6000611e4c83836120f5565b905092915050565b6000611e6083836122b7565b905092915050565b611e7181612743565b82525050565b611e8081612743565b82525050565b6000611e9182612663565b611e9b818561269e565b935083602082028501611ead85612643565b8060005b85811015611ee95784840389528151611eca8582611e40565b9450611ed583612684565b925060208a01995050600181019050611eb1565b50829750879550505050505092915050565b6000611f068261266e565b611f1081856126af565b935083602082028501611f2285612653565b8060005b85811015611f5e5784840389528151611f3f8582611e54565b9450611f4a83612691565b925060208a01995050600181019050611f26565b50829750879550505050505092915050565b611f7981612755565b82525050565b611f8881612755565b82525050565b6000611f9982612679565b611fa381856126cb565b9350611fb381856020860161279a565b611fbc81612949565b840191505092915050565b6000611fd282612679565b611fdc81856126dc565b9350611fec81856020860161279a565b611ff581612949565b840191505092915050565b600061200d6011836126dc565b91506120188261295a565b602082019050919050565b60006120306013836126dc565b915061203b82612983565b602082019050919050565b60006120536019836126dc565b915061205e826129ac565b602082019050919050565b60006120766018836126dc565b9150612081826129d5565b602082019050919050565b60006120996016836126dc565b91506120a4826129fe565b602082019050919050565b60006120bc6000836126c0565b91506120c782612a27565b600082019050919050565b60006120df6024836126dc565b91506120ea82612a2a565b604082019050919050565b60006101408301600083015161210e60008601826123d7565b5060208301516121216020860182611e68565b50604083015184820360408601526121398282611f8e565b915050606083015161214e60608601826123d7565b50608083015161216160808601826123d7565b5060a083015161217460a08601826123d7565b5060c083015161218760c08601826123d7565b5060e083015161219a60e08601826123d7565b506101008301516121af610100860182611f70565b506101208301518482036101208601526121c98282611efb565b9150508091505092915050565b6000610140830160008301516121ef60008601826123d7565b5060208301516122026020860182611e68565b506040830151848203604086015261221a8282611f8e565b915050606083015161222f60608601826123d7565b50608083015161224260808601826123d7565b5060a083015161225560a08601826123d7565b5060c083015161226860c08601826123d7565b5060e083015161227b60e08601826123d7565b50610100830151612290610100860182611f70565b506101208301518482036101208601526122aa8282611efb565b9150508091505092915050565b600060c0830160008301516122cf60008601826123d7565b5060208301516122e260208601826123d7565b5060408301516122f560408601826123d7565b506060830151848203606086015261230d8282611f8e565b915050608083015184820360808601526123278282611f8e565b91505060a083015161233c60a08601826123d7565b508091505092915050565b600060c08301600083015161235f60008601826123d7565b50602083015161237260208601826123d7565b50604083015161238560408601826123d7565b506060830151848203606086015261239d8282611f8e565b915050608083015184820360808601526123b78282611f8e565b91505060a08301516123cc60a08601826123d7565b508091505092915050565b6123e081612781565b82525050565b6123ef81612781565b82525050565b6000612400826120af565b9150819050919050565b600060208201905081810360008301526124248184611e86565b905092915050565b6000602082019050818103600083015261244581612000565b9050919050565b6000602082019050818103600083015261246581612023565b9050919050565b6000602082019050818103600083015261248581612046565b9050919050565b600060208201905081810360008301526124a581612069565b9050919050565b600060208201905081810360008301526124c58161208c565b9050919050565b600060208201905081810360008301526124e5816120d2565b9050919050565b6000602082019050818103600083015261250681846121d6565b905092915050565b600060208201905061252360008301846123e6565b92915050565b60006101208201905061253f600083018c6123e6565b61254c602083018b611e77565b818103604083015261255e818a611fc7565b905061256d60608301896123e6565b61257a60808301886123e6565b61258760a08301876123e6565b61259460c08301866123e6565b6125a160e08301856123e6565b6125af610100830184611f7f565b9a9950505050505050505050565b60006040820190506125d260008301856123e6565b81810360208301526125e48184612347565b90509392505050565b60006125f7612608565b905061260382826127ff565b919050565b6000604051905090565b600067ffffffffffffffff82111561262d5761262c612906565b5b61263682612949565b9050602081019050919050565b6000819050602082019050919050565b6000819050602082019050919050565b600081519050919050565b600081519050919050565b600081519050919050565b6000602082019050919050565b6000602082019050919050565b600082825260208201905092915050565b600082825260208201905092915050565b600081905092915050565b600082825260208201905092915050565b600082825260208201905092915050565b60006126f882612781565b915061270383612781565b9250827fffffffffffffffffffffffffffffffffffffffffffffffffffffffffffffffff0382111561273857612737612879565b5b828201905092915050565b600061274e82612761565b9050919050565b60008115159050919050565b600073ffffffffffffffffffffffffffffffffffffffff82169050919050565b6000819050919050565b82818337600083830152505050565b60005b838110156127b857808201518184015260208101905061279d565b838111156127c7576000848401525b50505050565b600060028204905060018216806127e557607f821691505b602082108114156127f9576127f86128a8565b5b50919050565b61280882612949565b810181811067ffffffffffffffff8211171561282757612826612906565b5b80604052505050565b600061283b82612781565b91507fffffffffffffffffffffffffffffffffffffffffffffffffffffffffffffffff82141561286e5761286d612879565b5b600182019050919050565b7f4e487b7100000000000000000000000000000000000000000000000000000000600052601160045260246000fd5b7f4e487b7100000000000000000000000000000000000000000000000000000000600052602260045260246000fd5b7f4e487b7100000000000000000000000000000000000000000000000000000000600052603260045260246000fd5b7f4e487b7100000000000000000000000000000000000000000000000000000000600052604160045260246000fd5b600080fd5b600080fd5b600080fd5b600080fd5b6000601f19601f8301169050919050565b7f496e76616c6964207469636b6574204944000000000000000000000000000000600082015250565b7f5469636b657420616c726561647920736f6c6400000000000000000000000000600082015250565b7f596f7520646f6e2774206861766520656e6f7567682045544800000000000000600082015250565b7f53656c6c696e67206475726174696f6e20657870697265640000000000000000600082015250565b7f496e636f7272656374207469636b657420707269636500000000000000000000600082015250565b50565b7f4f6e6c7920746865204576656e74206f776e65722063616e204164642054696360008201527f6b65747300000000000000000000000000000000000000000000000000000000602082015250565b612a8281612743565b8114612a8d57600080fd5b50565b612a9981612781565b8114612aa457600080fd5b5056fea2646970667358221220f6d30f8b8e30b7d775ceeb14e47ca2563352f15e42dacfcfe7e23c42fbded58964736f6c63430008070033",
  "linkReferences": {},
  "deployedLinkReferences": {}
}